:020000021000EC
:10F000000C9450FEBA92AA929A928A927A925A924A
:10F010004A92BA93AA939A938A9348012901DA01F2
:10F02000AFB6F894932F80E0042F052B09F447C066
:10F03000792E00E8B02E0A2F0B2B11F184159505BF
:10F0400088F0F40101914F01119729F031914F019E
:10F05000132F119718C06BB79C012F5F3F4FF90119
:10F060006BBF10C042D006919C012F5F3F4F24150B
:10F07000350511F4F401EACF2BB6F9012BBE02C01D
:10F0800034D00791169198018C010E94C3FA029620
:10F09000BA9489F600E0172D0E9415FB012B21F090
:10F0A00000E0172D0E94D7FA00E0172D0E94CCFA3D
:10F0B00080E0972D93950A2F0B2B09F0B9CF11E122
:10F0C000002417BFE89507B700FDFDCFA7FA0EF49F
:10F0D000789489919991A991B99149905990799091
:10F0E00089909990A990B99008956BB7AC01FA01F5
:10F0F0006BBF08952E011001000000100000017C7C
:10F10000FD0140E030E0542F5295507F5093ED00C8
:10F11000EEEEF0E03193E83FF307E0F343954F3034
:10F1200090F308950091EF00007C11F40FEF089523
:10F130001091EE00012F007E09F008951F71012F3C
:10F14000E1F700E0089520E008C04091FA0030E0C7
:10F15000F801E20FF31F408323953091EF003F70D9
:10F16000231798F3089501E00093D80006E0009378
:10F17000E2000CE00093E30007E30093E40001E009
:10F1800008958DD110E0A1D10083018301E0A0D1C9
:10F1900010933D024DEF5FE00E946CFE10E1019F75
:10F1A000E0E1F1E0048E158E01EF001607E0100695
:10F1B00018F000E0048F058F04E211E00783108748
:10F1C00000E006A307A300EF17E00483158302E025
:10F1D00001830EE211E0018B128B01E00387089599
:10F1E000BA93AA939A938A93A0E1B1E008E00093BE
:10F1F0001601FD01048D158D028313838D010E947C
:10F200007AFD8D010E94FBFD0130D9F3023011F42B
:10F2100000E023C140D11296ED91FC911397E81BB9
:10F22000F90B309679F0319789F1319709F457C08D
:10F23000319709F4A3C0319709F4D7C0329709F484
:10F24000EFC00AC100E012D1109124014CEF5FE041
:10F250000E946CFE101719F01F3F09F0FDC00091CD
:10F260001601013009F0F8C012D129F401E0009331
:10F27000380115D103C000E000933801F3D002E05B
:10F28000008B01E8068F00A5078FE5C000D109F4C7
:10F29000E3C010912401103871F4009125010F3F53
:10F2A00041F4009126010F3F21F40E9446FB002308
:10F2B00061F421D1D1C01123E1F7DBD000E0FD01E1
:10F2C00006A307A301E0D2D008D1E5D0019620D152
:10F2D00000913D02013011F400E0008BBCC01091A0
:10F2E0003801112309F4B8C010913D02113009F71B
:10F2F00010E024E231E0409116014423B9F0F90115
:10F3000001919F01FD0146A1F7A1E42FE75CFE4FAB
:10F310000083FD0146A157A14F5F5F4F46A357A34E
:10F3200000E0139540911601141748F3FD0126A142
:10F3300037A1293F10E0310738F4E2E0F1E04081E5
:10F3400051812417350741F409E311E00E94AFFC15
:10F3500020E0FD0126A327A39ED0029684D011E0D1
:10F36000108B002311F402E075C0013000E021F49D
:10F37000068F7CD0A1D06FC079D09BCF96D009F4F6
:10F380006BC003966FD000E0008B73D0A6D00091C5
:10F3900024010023B1F408E00093200101C0B7D09C
:10F3A00028E030E00EE211E00E946DFB0023B9F38B
:10F3B000013029F4009102010093200113C09BD079
:10F3C00012C0003809F075CF0E9464FC002351F48C
:10F3D00002E00093200179D0018100932E01008189
:10F3E00000932F0194D068D037C051D0A9F100917B
:10F3F0002401033009F05DCF00912501002331F491
:10F4000000916000086000936000FFCF013009F0B8
:10F4100050CF10912601009127010E942EFB1CC0A5
:10F4200044D0D1F010912401112371F0113011F466
:10F430002AD00AC0123021F0133009F03ACF23D07D
:10F44000009126010E9438FB26D006960CD001E0E0
:10F45000008B00E0068F5BD001E089919991A99122
:10F46000B9910895FD0184879587089500933D0221
:10F4700008953091270120912801109125010091D4
:10F4800026010C943BFB009125010C9435FB009167
:10F49000380100230895FD01848D958D089500E0C5
:10F4A0000093040100930501089500E000933D02DC
:10F4B0000091380100230895E9E3F2E019D005D066
:10F4C00009D0EBE3F2E014D003C0E0E0F1E00895EE
:10F4D000E2E0F1E0008311830895F7DF09D0E9E36A
:10F4E000F2E0F8DFE2E0F1E003D0EBE3F2E0F2CFAC
:10F4F0000081118108959A938A93E0E1F1E0848D6F
:10F50000958D069605D003D089919991089507C0ED
:10F510008487958700E0068F01E0008B08950AE15B
:10F5200011E00E947AFD0AE111E00E94FBFD01302A
:10F53000D1F30895A8010C946CFEBC01F801CA0136
:10F54000042F052B49F00191A90108D0F999FECFAC
:10F550002F5F3F4F0197B9F7CB0108950C9478FEC8
:10F56000192F282F80E090E0AC010E946CFE0F3F25
:10F5700021F00FEFF3DFF999FECF01969031A0F360
:10F58000822F912F089541E0F801090147BFE895C6
:10F5900007B700FDFDCF089527B720FDFDCF25E07B
:10F5A000F80127BFE89507B700FDFDCF089527B7FD
:10F5B00020FDFDCF23E0F80127BFE89507B700FD48
:10F5C000FDCF08956BB7F8016BBF069108952197A1
:10F5D000288341E050E098018E010E9402F82196B4
:10F5E00008954A92BA93AA939A938A9380E090E0FE
:10F5F000A0E0B0E04BB6ABBF00E0192F0E94D7FAF5
:10F6000080509F4FAF4FBF4F803000EF900701E019
:10F61000A007B80780F307B700FDFDCF4BBE899167
:10F620009991A991B991499008959C0150E000E009
:10F6300080E090E02BB60801F0012BBE6791769137
:10F640006F3F7F4F11F050E106C00E5F1F4F0196D4
:10F650008038950778F3152FC9010895183F10F4E5
:10F66000F80109940C940000089500930401089592
:10F67000009305010895E0E0F1E000831183201B71
:10F68000310B2F5F3F4F2283338308958A9381E0AC
:10F6900011D129F00A9561F0035089F01CC00E9435
:10F6A000F1FA8BBF2FEF9ED156D1082F8991089583
:10F6B00005D119F40E94B0FAF7CF80E0F5CFFED063
:10F6C00051F48BBF4AE050E026EF3FE006E011E046
:10F6D0000E9402F8E9CF80E0E8CF8A927A926A929B
:10F6E0005A924A92BA93AA939A938A93B801C901FB
:10F6F0008824DED071F00A9561F10A95C9F10A9566
:10F7000009F452C00A9509F466C00A9509F475C057
:10F7100086C0D4D019F00E3F09F081C01CD1022F51
:10F72000032B51F0BED018F0C801012B29F03B018A
:10F730002C01FED092D0E9F7FD0188D0082D8991E7
:10F740009991A991B991499059906990799089902E
:10F750000895B4D019F00E3F09F061C0FCD09DD0DF
:10F76000A4D051F33B012C01E0D077D029F3FCCF9A
:10F7700094D09BD009F38B019C0104C0F8018082D6
:10F7800076D0D1F25ED021F44EE1F8014083F8CF7B
:10F790004D9111974130580511F441E8F6CF4230B0
:10F7A000504061F747E9F1CF78D07FD029F28B0143
:10F7B0009C0106C042EDF801408359D009F4BCCF4A
:10F7C00040D011F441E8F7CF4D91119741305040AE
:10F7D00089F741EDF0CF61D068D061F09B01BC01A9
:10F7E000AED0F90101939F011CD061507040062FEB
:10F7F000072BB1F72BD0AFD0A1CF4FD056D009F403
:10F800009BCF8B019C01ED91FC9111974081F801F8
:10F8100041938F0134D02ED009F48ECFF4CF8A9447
:10F820008DCF0D911C910F5F1F4F1C930E9305D030
:10F8300001501040028313830895FD01028113815A
:10F8400008954D915C911197452B0895F7DF012B99
:10F8500019F48283938383940895F30101933F0104
:10F86000E0DF0FEF400E501E042D0529089507D04C
:10F870000F5F1F4F21503040422F432B08954D9171
:10F880005C914F5F5F4F5C934E93FD0142815381CA
:10F890004150504042835383089503D008F0C8017B
:10F8A0000895CBDF801791070895082F092B08953D
:10F8B000A0E0B1E0009104010023089547EF5FE06C
:10F8C0000E946CFE0F3F0895BA93AA938A9381E039
:10F8D000EFDF29F00A9561F0035081F021C03BD0A1
:10F8E00002C034D0E9F024D00F3FD9F380E018C033
:10F8F0001CD00F3FD9F72AD0D9F712C08BBF1FD029
:10F900002D91312F1197FD01E20FF11F1681011783
:10F9100011F080E004C00D91132F1AD079F71BD09D
:10F92000082F8991A991B991089505D00C949AFA5C
:10F9300002D00C94E2FA0D911C9111970895FBDF0F
:10F9400046EF5FE0400F511F0C946CFE0D911C912F
:10F950006ADF012B0895009105010BBF0895AA935A
:10F960009A938A93B801C901A0E0A4DF29F00A950F
:10F9700071F00350A1F034C0A1DF91F537D042D02F
:10F9800009F4A1E00A2F89919991A991089596DF30
:10F9900039F52CD00E949DFA37D0A1F7F2CF01E0C3
:10F9A0000BBF8CDF51F428D006EF1FE0200F311F72
:10F9B0008B0128D099F4A1E011C00E3F71F430D032
:10F9C0000130104051F42130904039F4FB010081A6
:10F9D0000C3F19F42CEF06D0EECFAFEFBCDFD2CF47
:10F9E000AFEFD0CF07EF1FE00C94E7FA00910501CD
:10F9F0000BBF02D0062F0895A901E0E0F1E02081BD
:10FA0000318108950E9402F80BD0080F191F00835E
:10FA1000118314DF081B190B02831383012B089534
:10FA2000E0E0F1E00081118108958A9381E0F8948B
:10FA300004B7002309F104B703FF0AC004B7077F26
:10FA400004BF08E10093600000E00093600004BF81
:10FA500000E004BF5098589A09B146EF5FE048D0E3
:10FA60000F3F51F04EEF5FE043D0302F4FEF5FE09C
:10FA70003FD0132F0E942EFB579A00E000933801CD
:10FA8000569855985E9A5D9A16C0082F0E94B3F852
:10FA90000023D9F30E9481F80091D80002600093FE
:10FAA000D80000913801002311F40E94C1F80E948F
:10FAB000F0F80023E1F78170809581704E99FECFB8
:10FAC00001E00093D80048EF5FE012D00F3FE9F269
:10FAD00049EF5FE00DD00093E2004AEF5FE008D00D
:10FAE0000093E3004BEF5FE003D00093E400D2CF3C
:10FAF0000C946CFEAD0120E6F801218721812130B4
:10FB000059F52EE0208320EE2093ED00EEEEF0E09C
:10FB100030E03193E83FF307E0F351D020E0368145
:10FB2000332361F0A781B08530E0A20FB31F3C9171
:10FB30003093FA00239536812317A0F32091F0002B
:10FB40002B7F2093F00006811091EF00102B109373
:10FB5000EF0031D000642AC0223051F520E020832C
:10FB60002093ED00EEEEF0E02193E83FF207E0F3A2
:10FB700026D025813CD034812FD02093F7000481FA
:10FB80000295007F000F0093F6000091F4000460DE
:10FB90000093F4000091F0000B7F0093F0000091BF
:10FBA000F40001600093F40006D000680093EF00B9
:10FBB00000E0DA0108956BD00091EF00089511D0B4
:10FBC000F801238114D0328107D02093F3002281E1
:10FBD0000ED02093F20005C0369536953695230F4A
:10FBE00008952091EF002F7E2093EF000895229535
:10FBF000207F220F0895BA93AA938A93D801F8011F
:10FC000081858823C9F18F31B9F18F3FA9F10C911A
:10FC10000295007F0093ED000E9492F8802F005A19
:10FC200049F0005629F0005229F0005209F122C093
:10FC300001E023C00091EF000F70FD0106830781F2
:10FC400010850E94A3F80091F30002950F700695AD
:10FC5000FD0103830091F20002950F70069510914B
:10FC6000F300110F110F110F010F02830AD005C00D
:10FC7000FD01FCCFFD0105D002E08991A991B99168
:10FC80000895818704D000E00093EE00089500916C
:10FC9000EF000F730093EF00089500008895FECFEA
:10FCA0000DEB0DBF02E00EBFCEE7D2E00E947CFE5E
:10FCB000002311F00E948EFE0E9415FD0E944DFE51
:10FCC0000C944DFEF999FECF08954F5F5F4FFADF18
:10FCD00041BD52BDF89A0895FADF00B508954F5F0F
:10FCE0005F4F41BD52BDF894FA9AF99A0FBE08953C
:10FCF0000FB6E8DF00BDF5CF01E0089520E008D0A1
:10FD0000E9F708953BBF27913BB702D0D9F7089593
:10FD10002D9301501040202F212B089504EF402EE9
:10FD200000EF502E01E0602EF201362D6BBE0791E0
:10FD30001691F201EE5FFF4F3F4F3BBFA791B69187
:10FD4000F201362DEC5FFF4F3F4F3BBF479157917C
:10FD50006691242F252B262B21F0FA01362FD2DF96
:10FD600001C0CCDF07E0400E00E0501E601EA20183
:10FD7000662D4230514F6140B8F2089500000000F6
:10FD80000000FFFFFFFFFFFFFF3E0000FFFFFFFF40
:00000001FF
