:100000004AC0000072C0000070C000006EC0000056
:100010006CC000006AC0000068C0000066C000003C
:1000200064C0000062C0000060C000005EC000004C
:100030005CC000005AC0000058C0000056C000005C
:1000400054C0000052C000000C94D60F4EC00000F7
:100050004CC000004AC0000048C0000046C000007C
:1000600044C0000042C0000040C000003EC000008C
:100070000C94080F3AC0000038C0000036C00000E1
:1000800034C0000032C0000030C000002EC00000AC
:100090002CC00000E91211241FBECFEFD0E1DEBF5B
:1000A000CDBF15E0A0E0B1E0E8E0FCE200E00BBF6E
:1000B00002C007900D92A035B107D9F725E0A0E561
:1000C000B5E001C01D92AD3BB207E1F710E0CBE413
:1000D000D0E004C02197FE010E946013CA34D1070A
:1000E000C9F70E9454120C9402168ACFCF93DF9363
:1000F00000D0CDB7DEB719821A8288ED90E028EDE6
:1001000030E0F90120812160FC01208388ED90E03E
:10011000FC011082000089ED90E0FC018081882FB5
:1001200090E08470992721E0892B09F420E02223B4
:1001300091F78AED90E0FC01108280EE90E0FC01E6
:10014000108281EE90E0FC01108219823EC08DEE9B
:1001500090E029812295207FFC0120838FEE90E0A2
:10016000FC0110828EEE90E0FC01108283EF90E0A3
:10017000FC01108282EF90E0FC01108281EF90E0A0
:10018000FC01108280EF90E0FC01108287EF90E08C
:10019000FC01108286EF90E0FC01108285EF90E078
:1001A000FC01108284EF90E0FC0110821A8207C0EB
:1001B0008AEF90E0FC0110828A818F5F8A838A81B6
:1001C0008830B0F389818F5F898389818F3008F40B
:1001D000BECF82EE90E026E0FC01208383EE90E02B
:1001E0002CE0FC01208384EE90E027E3FC012083D7
:1001F0008BED90E020EAFC0120838EED90E0FC0185
:10020000118210828CED90E0FC01108280EE90E073
:10021000FC011182108288ED90E022E0FC01208335
:10022000000089ED90E0FC018081882F90E08470CF
:10023000992721E0892B09F020E0222391F780E023
:100240000F900F90DF91CF910895CF93DF931F927E
:10025000CDB7DEB7898389818F3010F081E02DC062
:100260008CED90E02CED30E0F90120813181498165
:10027000642F70E041E050E002C0440F551F6A95C2
:10028000E2F7242B352BFC01318320838EED90E0A7
:100290002EED30E0F901208131814981642F70E039
:1002A00041E050E002C0440F551F6A95E2F7242B4D
:1002B000352BFC013183208380E00F90DF91CF91BB
:1002C0000895CF93DF931F92CDB7DEB789838DEE6C
:1002D00090E029812295207FFC01208380E00F900F
:1002E000DF91CF910895CF93DF9300D000D01F927C
:1002F000CDB7DEB769837A838B839C834D838D81F1
:10030000882F90E0009719F0019729F169C0898141
:100310009A81AB81BC8181159840A105B10510F08F
:1003200081E061C023EF30E089819A81AB81BC819B
:10033000689412F8B695A795979587951694D1F776
:10034000F901808382EF90E029812295220F207E9F
:10035000FC01208347C089819A81AB81BC810097D1
:10036000A105B04210F082E03EC023EF30E0898169
:100370009A81AB81BC81072E75E1B695A7959795BB
:1003800087957A95D1F7702DF901808322EF30E0BF
:1003900089819A81AB81BC81072E7DE0B695A795B6
:1003A000979587957A95D1F7702DF901808321EF84
:1003B00030E089819A81AB81BC81689414F8B6954C
:1003C000A795979587951694D1F7F901808380EFCB
:1003D00090E02981220F220F220FFC01208302C00E
:1003E00083E001C080E00F900F900F900F900F906E
:1003F000DF91CF9108950F93CF93DF93CDB7DEB701
:100400002A970FB6F894DEBF0FBECDBF6A837B83F9
:100410008C839D832E833F83488759870A878A81EF
:100420009B81AC81BD814A85BC01CD015CDF8983A4
:100430008981882311F0898174C08A85882F90E092
:10044000009719F0019729F169C08E819F81A885D5
:10045000B98581159840A105B10510F084E061C00F
:1004600027EF30E08E819F81A885B985689412F8C6
:10047000B695A795979587951694D1F7F90180833E
:1004800086EF90E02E812295220F207EFC012083B2
:1004900047C08E819F81A885B9850097A105B0428C
:1004A00010F085E03EC027EF30E08E819F81A88567
:1004B000B985072E75E1B695A795979587957A9595
:1004C000D1F7702DF901808326EF30E08E819F8176
:1004D000A885B985072E7DE0B695A7959795879550
:1004E0007A95D1F7702DF901808325EF30E08E8168
:1004F0009F81A885B985689414F8B695A7959795B6
:1005000087951694D1F7F901808384EF90E02E81CE
:10051000220F220F220FFC01208302C086E001C0BF
:1005200080E02A960FB6F894DEBF0FBECDBFDF91F4
:10053000CF910F9108950F93CF93DF9300D000D008
:100540001F92CDB7DEB769837A838B839C834D83FB
:100550008D81882369F489819A81AB81BC8100E017
:100560002FEF37E040E050E0BC01CD0144DF0CC08C
:1005700089819A81AB81BC810D812FEF3FEF4FEFD5
:100580005FE1BC01CD0137DF0F900F900F900F900E
:100590000F90DF91CF910F910895CF93DF9300D00B
:1005A0001F92CDB7DEB789836A834B838A818930F6
:1005B00010F083E011C08FEE90E02981322F329548
:1005C000330F330F307C2B812295207F320F2A810D
:1005D000230FFC01208380E00F900F900F90DF919C
:1005E000CF910895CF93DF9300D0CDB7DEB7898345
:1005F0006A838A81893010F083E00DC08FEE90E02D
:100600002981322F3295330F330F307C2A81230F0B
:10061000FC01208380E00F900F90DF91CF9108952F
:10062000CF93DF931F92CDB7DEB789838EEE90E034
:10063000FC0110828FEE90E02FEE30E0F901208176
:100640002F73FC0120838FEE90E02FEE30E0F90154
:100650002081422F2981222F30E0002436952795D2
:100660000794369527950794322F202D242BFC01D3
:10067000208380E00F90DF91CF910895CF93DF9397
:10068000CDB7DEB78AED90E02FEFFC012083DF913C
:10069000CF910895CF93DF9300D01F92CDB7DEB7EF
:1006A0009B838A83198210C08981882F90E02A81D8
:1006B0003B81820F931F2AEF30E0F9012081FC017A
:1006C000208389818F5F89838981883068F380E006
:1006D0000F900F900F90DF91CF910895CF93DF93FC
:1006E00000D000D01F92CDB7DEB78A837C836B83A6
:1006F0004D838A81E6DD982F81E0992309F480E01B
:10070000882311F081E01FC08D81893010F082E0D4
:100710001AC0198210C08AEF90E02981222F30E0A0
:100720004B815C81240F351FF9012081FC0120835E
:1007300089818F5F898399818D81981760F36D819D
:1007400081E050DF80E00F900F900F900F900F909E
:10075000DF91CF910895CF93DF93CDB7DEB7279781
:100760000FB6F894DEBF0FBECDBF8D837F836E833F
:1007700019821A821B821C820BC089819A81AB81EB
:10078000BC810196A11DB11D89839A83AB83BC8373
:1007900089ED90E0FC018081882F90E0807199279D
:1007A000892B59F089819A81AB81BC818034964034
:1007B000A105B10510F481E001C080E08823E9F6CD
:1007C0008E819F8148E0BC018D8188DF27960FB61E
:1007D000F894DEBF0FBECDBFDF91CF9108950F9388
:1007E000CF93DF93CDB7DEB728970FB6F894DEBF6F
:1007F0000FBECDBF6A837B838C839D834E832F8303
:1008000008878E815EDD982F81E0992309F480E0CE
:10081000882311F081E023C08F81823029F48E81FA
:1008200014DD82E0898301C019828A819B81AC81B9
:10083000BD814885BC01CD017EDE982F81E09923E2
:1008400009F480E0882311F082E009C0488568E05F
:100850008981A3DE8F81823009F410DF80E0289641
:100860000FB6F894DEBF0FBECDBFDF91CF910F91D1
:100870000895CF92DF92EF92FF92CF93DF93CDB79F
:10088000DEB72D970FB6F894DEBF0FBECDBF9B87A6
:100890008A877D876C871B828A859B8584399F40E8
:1008A00049F480E091E09A83898388E290E0815066
:1008B0008B8329C08A859B858C3C904149F480EAD2
:1008C00091E09A83898388E290E081508B831BC0FA
:1008D0008A859B858B369D4049F480E492E09A831B
:1008E000898381EA90E081508B830DC08A859B8546
:1008F000883E934041F484EC94E09A83898382E2B9
:1009000090E081508B8389819A81FC018081918163
:100910009C018C859D852817390728F480E090E09C
:10092000A0E0B3EC1FC18B81882F90E0880F991F46
:10093000880F991F29813A81820F931FFC018081C2
:1009400091819C018C859D858217930728F480E016
:1009500090E0AEEFB2E406C181E090E09D838C832D
:10096000F5C08C819D81880F991F880F991F29815F
:100970003A81820F931FFC01808191819C018C85BB
:100980009D8528173907C1F48C819D81880F991F97
:10099000880F991F29813A81820F931FFC01828160
:1009A0009381092E000CAA0BBB0BBC01CD010E9448
:1009B0007C14DC01CB01D6C08C819D81880F991FEE
:1009C000880F991F29813A81820F931FFC01808132
:1009D00091819C018C859D852817390708F0B1C04D
:1009E0008C819D818150904C880F991F880F991F91
:1009F00029813A81820F931FFC01808191819C01A2
:100A00008C859D85A901481B590BCA01CC01A0E02A
:100A1000B0E0BC01CD010E947A146B017C018C8195
:100A20009D818150904C880F991F880F991F2981B3
:100A30003A81820F931FFC01208131818C819D813D
:100A4000880F991F880F991F49815A81840F951F1C
:100A5000FC0180819181A901481B590BCA01092E13
:100A6000000CAA0BBB0BBC01CD010E947C14DC0165
:100A7000CB019C01AD01C701B6010E94E113DC016D
:100A8000CB018E839F83A887B9878C819D81880F36
:100A9000991F880F991F29813A81820F931FFC01AA
:100AA000228133818C819D818150904C880F991FC8
:100AB000880F991F49815A81840F951FFC018281FB
:100AC0009381A901481B590BCA01092E000CAA0BDE
:100AD000BB0BBC01CD010E947C14DC01CB019C014D
:100AE000AD016E817F81888599850E943015DC017A
:100AF000CB018E839F83A887B9878C819D8181508C
:100B0000904C880F991F880F991F29813A81820F75
:100B1000931FFC0182819381092E000CAA0BBB0B51
:100B2000BC01CD010E947C14DC01CB012E813F81F0
:100B300048855985BC01CD010E947913DC01CB01A8
:100B400011C08C819D8101969D838C838B81282F80
:100B500030E08C819D81281739070CF002CF80E0AE
:100B600090E0DC01BC01CD012D960FB6F894DEBFFC
:100B70000FBECDBFDF91CF91FF90EF90DF90CF9070
:100B80000895CF93DF93CDB7DEB728970FB6F894CB
:100B9000DEBF0FBECDBF9E838D8378876F832F818D
:100BA00038858D819E81B90164DEDC01CB018983AA
:100BB0009A83AB83BC8320E030E04EEF52E469813E
:100BC0007A818B819C810E942C15882314F08FE7F9
:100BD0001EC020E030E040E053EC69817A818B81D7
:100BE0009C810E94DD13181614F080E810C08981E2
:100BF0009A81AB81BC81BC01CD010E949315DC01BF
:100C0000CB01BC01CD010E944914DC01CB01289627
:100C10000FB6F894DEBF0FBECDBFDF91CF91089520
:100C2000CF93DF9300D0CDB7DEB79A8389838981D4
:100C30009A81FC01108289819A812AE0FC0121833A
:100C400089819A81FC01128289819A81FC01138237
:100C500089819A81FC0114820F900F90DF91CF91CE
:100C600008950F93CF93DF93CDB7DEB728970FB6D4
:100C7000F894DEBF0FBECDBF9A8389837C836B83DC
:100C80004D833F832E83088729813A818B819C8104
:100C90002817390729F489819A812D81FC01208345
:100CA00089819A819C012F5F3F4F8E819F812817F8
:100CB000390729F489819A812885FC01218389815A
:100CC0009A81FC01128289819A81FC0113828981B7
:100CD0009A81FC01148228960FB6F894DEBF0FBEED
:100CE000CDBFDF91CF910F910895CF93DF9300D0C7
:100CF000CDB7DEB79A83898389819A81FC012481EB
:100D000089819A81FC018181821730F489819A81DD
:100D100021E0FC0122830AC089819A81FC0184813F
:100D200021E0280F89819A81FC0124830F900F9084
:100D3000DF91CF910895CF93DF9300D0CDB7DEB789
:100D40009A83898389819A81FC01148289819A819D
:100D5000FC01908181E08927882321F089819A8193
:100D6000FC0112820F900F90DF91CF910895CF93E5
:100D7000DF9300D000D01F92CDB7DEB79A8389836E
:100D80007C836B834D838B819C810E94DC15282F93
:100D900089819A81FC01208389819A81FC0180816B
:100DA0008F3F71F489819A812D81FC012083898193
:100DB0009A81FC0120818B819C81622F0E94E41525
:100DC0000F900F900F900F900F90DF91CF9108959B
:100DD000CF93DF93CDB7DEB744E26FE070E08BEBEB
:100DE00095E0C5DF4CE360E070E08DEA95E0BFDFA1
:100DF00042E361E070E08EEA95E0B9DF4AE062E04C
:100E000070E08FEA95E0B3DF47E263E070E080EBEB
:100E100095E0ADDF43E664E070E081EB95E0A7DFAD
:100E20004EE165E070E082EB95E0A1DF40E066E036
:100E300070E083EB95E09BDF4FE067E070E084EBD0
:100E400095E095DF4DE268E070E085EB95E08FDF9F
:100E50004DE669E070E086EB95E089DF42EC6AE000
:100E600070E087EB95E083DF4EE16BE070E088EBAC
:100E700095E07DDF4CEF6CE070E089EB95E077DF8B
:100E800043E06DE070E08AEB95E071DF8091AE05A4
:100E900080937F058091AF05809370058091AF05A9
:100EA000809375058091AF0580937A058091AF0599
:100EB000809384058091AF05809389058091B80562
:100EC00080939805DF91CF910895CF93DF93CDB7AD
:100ED000DEB78EEE90E0FC01908181E0992309F469
:100EE00080E08823D1F08EEE90E0FC018081882F95
:100EF00090E08072992721E0892B09F420E02223D9
:100F000051F08FEF80934F0582EA95E0C3DB82E0DA
:100F100087DB81E003C082E083DB80E0DF91CF915B
:100F200008950F93CF93DF93CDB7DEB700E022E0B3
:100F300040E060EB71E080E090E051DC00E021E017
:100F40004DE063E372E080E090E049DC00E022E005
:100F500041E065EB71E080E090E041DC00E021E001
:100F60004EE06CE372E080E090E039DCDF91CF91FD
:100F70000F910895CF93DF93CDB7DEB728970FB6C3
:100F8000F894DEBF0FBECDBF28E0CE010196FC0174
:100F9000322F11923A95E9F780916D0589838091FE
:100FA0004E058A83809169058C8380916A058D83C3
:100FB0001E8284E08F838091BC0588878B8190910D
:100FC0007105892B8B838B81282F80917605882F43
:100FD00090E0880F991F822B8B838B81282F809123
:100FE0007B05882F90E0880F991F880F991F822B0F
:100FF0008B838B81282F80918005882F90E0880F2C
:10100000991F880F991F880F991F822B8B838B81C3
:10101000282F80918505882F90E082959295907F6A
:101020009827807F9827822B8B838B81282F809114
:101030008A05882F90E0880F991F82959295907F5E
:101040009827807F9827822B8B838B81282F8091F4
:101050009405882F90E0002496958795079496959F
:1010600087950794982F802D822B8B838B81282F37
:1010700080919905882F90E09695982F88279795CD
:101080008795822B8B838E8190918F05892B8E8300
:10109000CE010196BC018DE05EDB28960FB6F89478
:1010A000DEBF0FBECDBFDF91CF910895CF93DF9309
:1010B000CDB7DEB781E290E0FC01108282E290E0E1
:1010C000FC01108281E290E021E230E0F901208110
:1010D0002460FC01208381E290E021E230E0F9010C
:1010E00020812F7BFC01208381E290E021E230E02F
:1010F000F90120812F77FC01208384E290E0FC013C
:10110000108285E290E0FC01108284E290E024E20B
:1011100030E0F90120812062FC01208387E290E029
:10112000FC01108288E290E0FC0110828AE290E0EB
:10113000FC0110828BE290E0FC0110828AE290E0D8
:101140002AE230E0F90120812F7DFC0120838AE230
:1011500090E02AE230E0F90120812F7BFC0120831E
:101160008AE290E02AE230E0F90120812068FC0167
:1011700020838AE290E02AE230E0F90120812160B8
:10118000FC0120838AE290E02AE230E0F90120812C
:101190002B7FFC01208380E390E0FC01108281E33F
:1011A00090E0FC01108281E990E021E930E0F90152
:1011B00020812D60FC01208388E990E02AE136E05F
:1011C000FC013183208381E790E021E730E0F901E1
:1011D00020812260FC01208380E890E0FC011082E5
:1011E00080E890E020E830E0F90120812068FC01EF
:1011F000208380E890E020E830E0F901208120623F
:10120000FC01208380E890E020E830E0F9012081B3
:101210002A61FC01208381E890E021E830E0F901B7
:1012200020812260FC01208386E890E02FEF31E0EE
:10123000FC01318320838AE790E0FC0110828AE779
:1012400090E02AE730E0F9012081236CFC01208343
:10125000DF91CF910895CF93DF9300D000D0CDB729
:10126000DEB78B836C838B8182958F7089838B81B2
:101270008F708A838981882F90E08C30910509F4E2
:1012800071C08D30910534F48A30910579F00B9757
:10129000D9F120C18E30910509F4C0C08E3091057E
:1012A0000CF48EC00F9709F4E7C014C18C81882319
:1012B000A9F082E290E022E230E0F9012081622F81
:1012C0002A81422F50E021E030E002C0220F331F7C
:1012D0004A95E2F7262BFC012083FCC082E290E0D5
:1012E00022E230E0F9012081622F2A81422F50E072
:1012F00021E030E002C0220F331F4A95E2F720952B
:101300002623FC012083E6C08C818823A9F085E296
:1013100090E025E230E0F9012081622F2A81422FFE
:1013200050E021E030E002C0220F331F4A95E2F77F
:10133000262BFC012083CEC085E290E025E230E040
:10134000F9012081622F2A81422F50E021E030E014
:1013500002C0220F331F4A95E2F720952623FC0195
:101360002083B8C08C818823A9F088E290E028E22D
:1013700030E0F9012081622F2A81422F50E021E0E4
:1013800030E002C0220F331F4A95E2F7262BFC0102
:101390002083A0C088E290E028E230E0F9012081BB
:1013A000622F2A81422F50E021E030E002C0220F5C
:1013B000331F4A95E2F720952623FC0120838AC03B
:1013C0008C818823A9F08BE290E02BE230E0F901D8
:1013D0002081622F2A81422F50E021E030E002C0BC
:1013E000220F331F4A95E2F7262BFC01208372C09F
:1013F0008BE290E02BE230E0F9012081622F2A811C
:10140000422F50E021E030E002C0220F331F4A9506
:10141000E2F720952623FC0120835CC08C81882381
:10142000A9F08EE290E02EE230E0F9012081622FF7
:101430002A81422F50E021E030E002C0220F331F0A
:101440004A95E2F7262BFC01208344C08EE290E00F
:101450002EE230E0F9012081622F2A81422F50E0F4
:1014600021E030E002C0220F331F4A95E2F72095B9
:101470002623FC0120832EC08C818823A9F081E3E0
:1014800090E021E330E0F9012081622F2A81422F90
:1014900050E021E030E002C0220F331F4A95E2F70E
:1014A000262BFC01208315C081E390E021E330E08E
:1014B000F9012081622F2A81422F50E021E030E0A3
:1014C00002C0220F331F4A95E2F720952623FC0124
:1014D000208300000F900F900F900F90DF91CF911D
:1014E0000895CF93DF9300D01F92CDB7DEB78B83E3
:1014F0008B8182958F7089838B818F708A8389819C
:10150000882F90E08C30910509F45DC08D309105F5
:1015100034F48A30910579F00B9789F1E2C08E306E
:10152000910509F498C08E3091050CF470C00F97A6
:1015300009F4B4C0D6C08A81282F30E081E090E061
:10154000AC0102C0440F551F2A95E2F79A0180E2D0
:1015500090E0FC018081882F90E0822393232A81F0
:10156000222F30E0AC0102C0559547952A95E2F74D
:101570009A0181E0232B09F0B5C080E0B3C08A81D5
:10158000282F30E081E090E0FC0102C0EE0FFF1F49
:101590002A95E2F79F0183E290E0FC018081882F89
:1015A00090E0822393232A81222F30E0AC0102C0F5
:1015B000559547952A95E2F79A0181E0232B09F08A
:1015C00091C080E08FC08A81282F30E081E090E0D8
:1015D000FC0102C0EE0FFF1F2A95E2F79F0186E291
:1015E00090E0FC018081882F90E0822393232A8160
:1015F000222F30E0AC0102C0559547952A95E2F7BD
:101600009A0181E0232B09F06DC080E06BC08A81D4
:10161000282F30E081E090E0FC0102C0EE0FFF1FB8
:101620002A95E2F79F0189E290E0FC018081882FF2
:1016300090E0822393232A81222F30E0AC0102C064
:10164000559547952A95E2F79A0181E0232B09F0F9
:1016500049C080E047C08A81282F30E081E090E0D7
:10166000FC0102C0EE0FFF1F2A95E2F79F018CE2FA
:1016700090E0FC018081882F90E0822393232A81CF
:10168000222F30E0AC0102C0559547952A95E2F72C
:101690009A0181E0232B31F580E024C08A81282F34
:1016A00030E081E090E0FC0102C0EE0FFF1F2A95C0
:1016B000E2F79F018FE290E0FC018081882F90E0AB
:1016C000822393232A81222F30E0AC0102C055955A
:1016D00047952A95E2F79A0181E0232B19F480E0DF
:1016E00001C080E00F900F900F90DF91CF9108958F
:1016F000CF93DF9300D01F92CDB7DEB78B838B8162
:1017000082958F7089838B818F708A8389818F30D6
:1017100031F58A81883018F58CE790E02A81FC0148
:1017200020838AE790E02AE730E0F90120812064F5
:10173000FC01208300008AE790E0FC018081882F73
:1017400090E08074992721E0892B09F420E022237E
:1017500091F788E790E0FC018081918102C08FEFD2
:101760009FEF0F900F900F90DF91CF910895CF933F
:10177000DF93CDB7DEB729970FB6F894DEBF0FBE63
:10178000CDBF8D838D81853608F01D828D81843695
:1017900099F480E890E020E830E0F90120812F778B
:1017A000FC01208385E290E025E230E0F901208110
:1017B0002062FC01208328C08D81882399F480E871
:1017C00090E020E830E0F90120812F77FC012083B0
:1017D00085E290E025E230E0F90120812F7DFC01D7
:1017E000208312C085E290E025E230E0F9012081FB
:1017F0002F7DFC01208380E890E020E830E0F901B3
:1018000020812068FC0120838FEF91E0A0E0B0E010
:1018100089839A83AB83BC838D81882F90E0A0E07D
:10182000B0E029813A814B815C81BC01CD01DDD6DC
:10183000DC01CB0189839A83AB83BC8389819A8144
:10184000AB81BC8124E630E040E050E0BC01CD013A
:10185000EFD6DA01C90189839A83AB83BC8388E818
:1018600090E029813A81FC013183208329960FB6CB
:10187000F894DEBF0FBECDBFDF91CF910895CF9317
:10188000DF931F92CDB7DEB789838981882339F032
:101890008981893020F48981815423DE0DC08981BA
:1018A000893019F487EA1DDE07C089818A3019F46E
:1018B00086EA17DE01C080E00F90DF91CF91089596
:1018C0000F931F93CF93DF93CDB7DEB727970FB654
:1018D000F894DEBF0FBECDBF81E080936605809196
:1018E0004C05CDDF80934D050DC084E990E0FC01EF
:1018F0008081918121E08D3D954008F420E02223F4
:1019000009F010C080914C05BADF282F30E080919B
:101910004D05882F90E041E02817390709F040E095
:10192000442319F784E990E0FC0180819181909330
:1019300068058093670590914D0581E0992309F032
:1019400080E080934D052AC080914C0598DF282FB8
:1019500030E080914D05882F90E041E0281739074D
:1019600009F440E0442369F0809166058F5F80931D
:10197000660590914D0581E0992309F080E0809300
:101980004D0584E990E0FC018081918121E08D3D4D
:10199000954008F420E0222309F004C080916605F8
:1019A0008A3090F284E990E0FC018081918121E00D
:1019B0008C3D954008F020E0222339F180914C05C0
:1019C000082F10E084E990E0FC01208131818091B2
:1019D000670590916805A901481B590BCA019C0134
:1019E00040E050E088EB98E8A0E0B0E0BC01CD0119
:1019F00041D6DA01C9019C01C801880F991F805B9B
:101A00009A4FFC01318320830BC080914C05882FB5
:101A100090E0880F991F805B9A4FFC011182108221
:101A200080914C058F5F80934C0580914C058B30E5
:101A300018F081E080934C051B821A828091B905D1
:101A4000282F30E08091BA05882F90E0982F8827C2
:101A5000820F931F9B838A8381E08983B7C0809123
:101A60006D05813029F080916D05823009F0ABC0A1
:101A70008981882F90E09C01215031098A819B81C6
:101A800002C0969587952A95E2F781709927892B50
:101A900009F499C08091B305882309F47CC0809132
:101AA0006D058130B1F58981882F90E0880F991FED
:101AB000805B9A4FFC01808191812091B005422F7B
:101AC00050E02091B205222F30E0BA01621B730B67
:101AD0009B0182179307B8F08981882F90E0880FC7
:101AE000991F805B9A4FFC01808191812091B00504
:101AF000422F50E02091B205222F30E0240F351FF5
:101B00002817390730F48EE795E0EFD88BE089830A
:101B100041C080916D058230B1F58981882F90E0B8
:101B2000880F991F805B9A4FFC01808191812091E1
:101B3000B105422F50E02091B205222F30E0BA01CA
:101B4000621B730B9B0182179307B8F08981882F62
:101B500090E0880F991F805B9A4FFC0180819181F2
:101B60002091B105422F50E02091B205222F30E0A4
:101B7000240F351F2817390730F48EE795E0B5D8C4
:101B80008BE0898307C089818A30E9F48EE795E08C
:101B9000D2D819C018C08981882F90E0880F991F6A
:101BA000805B9A4FFC0180819181892B31F48EE713
:101BB00095E09BD88BE0898306C089818A3019F42F
:101BC0008EE795E0B8D889818F5F898389818B30D2
:101BD00008F445CF27960FB6F894DEBF0FBECDBFF1
:101BE000DF91CF911F910F910895CF93DF93CDB7E0
:101BF000DEB783EF7DDD9C013695279536952795D9
:101C00008091B605882F90E041E02817390708F049
:101C100040E0442321F083E895E067D803C083E8DF
:101C200095E089D883EF64DD9C013695279536953C
:101C300027958091B705882F90E041E082179307A0
:101C400008F040E0442321F088E895E04ED803C036
:101C500088E895E070D8DF91CF910895CF93DF9316
:101C6000CDB7DEB780916B0580936A0510926B0546
:101C700080916905882341F480916A05882321F0C9
:101C800087E995E032D803C087E995E054D8809180
:101C90006A05882321F08CE995E04DD803C08CE9D2
:101CA00095E023D8DF91CF910895CF93DF93CDB7FF
:101CB000DEB782EF1DDDBC018CEC90E10E94C10516
:101CC000282F880F330B8091AD05882F90E041E0DD
:101CD000821793070CF040E0442321F08FE695E053
:101CE00004D803C08FE695E026D882EF01DDBC0161
:101CF0008CEC90E10E94C105982F81E09F3709F09C
:101D000080E0882329F084E795E00E94750603C0EF
:101D100084E795E010D882EFEBDCBC018CEC90E11D
:101D20000E94C105982F81E0903809F080E0882357
:101D300029F089E795E00E94750604C089E795E0DF
:101D40000E949B06DF91CF910895CF93DF93CDB78B
:101D5000DEB78DE895E00E947506DF91CF9108957A
:101D6000CF93DF93CDB7DEB781EFC2DC21E08533BF
:101D7000934008F420E0222329F082E995E00E94B4
:101D8000750604C082E995E00E949B06DF91CF9121
:101D90000895CF93DF93CDB7DEB780916E0588238A
:101DA00021F083E080936D0530C0809199058823F0
:101DB00021F085E080936D0528C0809180058823FF
:101DC000E1F480918A058823C1F4809185058823F8
:101DD000A1F480917B05882381F480917605882386
:101DE00061F480917105882341F480918F058823E7
:101DF00021F480919405882321F084E080936D057F
:101E000004C080916C0580936D05DF91CF9108959A
:101E10001F920F9200905F000F92112400905B00C0
:101E20000F922F933F934F935F936F937F938F9373
:101E30009F93AF93BF93EF93FF93CF93DF93CDB770
:101E4000DEB7A895D2DE31DF09DF3ADD7EDF88DF3D
:101E5000A0DF80916D05882F90E082309105B9F167
:101E6000833091052CF4009779F0019719F179C02E
:101E70008430910509F438C0843091050CF470C0A9
:101E8000059709F462C06DC081E080934E05109201
:101E9000690580919E05882331F060E080EDDBD9F3
:101EA00080E065DC5EC061E080EDD5D98091B4054D
:101EB0005EDC57C081E080934E0561E080EDCBD9B8
:101EC0008091B40554DC81E0809369054AC081E0CB
:101ED00080934E0561E080EDBED98091B50547DC69
:101EE00082E0809369053DC010924E058091800587
:101EF000882341F480918A05882321F48091850507
:101F0000882331F060E080EDA6D980E030DC1AC093
:101F100080917B05882381F480917605882361F484
:101F200080917105882341F480918F05882321F4E5
:101F300080919405882331F061E080ED8CD9809107
:101F4000B40515DC109269050CC010924E0561E0D5
:101F500080ED81D98091B5050ADC1092690501C038
:101F600000008091AB058F5F8093AB058091AB053E
:101F70008A3028F081E08093AC051092AB05DF91A8
:101F8000CF91FF91EF91BF91AF919F918F917F91F1
:101F90006F915F914F913F912F910F9000925B0055
:101FA0000F9000925F000F901F9018951F920F9254
:101FB00000905F000F92112400905B000F922F930E
:101FC0003F934F935F936F937F938F939F93AF93C1
:101FD000BF93EF93FF93CF93DF93CDB7DEB72F97E8
:101FE000DEBFCDBF0E943E038DE895E00E949B06B8
:101FF00080E00E9461010E946507982F81E099238B
:1020000009F480E0882309F442C08091A70581305B
:1020100011F410926C058091A7058230C1F5809172
:10202000BC058830A8F48091A805882F90E0209105
:10203000BC05222F30E002C0959587952A95E2F7DE
:1020400081709927892B21F082E080936C051FC055
:102050008091BC058830B8F08091A905882F90E068
:102060002091BC05222F30E02850310902C09595FF
:1020700087952A95E2F781709927892B21F082E0D4
:1020800080936C0504C081E080936C0500C081E002
:102090000E9461010E946507982F81E0992309F44D
:1020A00080E0882309F4E3C128E0CE010496FC0116
:1020B000322F11923A95E9F79091A3058091BB05D3
:1020C000981729F08091A3058F3F09F0CAC180912C
:1020D000A205882F90E08935910509F45BC08A3507
:1020E00091054CF48735910509F442C18835910575
:1020F00009F4AEC0B6C18E3F910561F18F3F9105E5
:1021000029F08D3F910509F436C0ABC18091A2053D
:102110008C838091BB058D8384E28E836FEF86EF85
:102120009FE063D586EF9FE047D58F83CE0104966D
:10213000BC018EE00E94AB0386E087708860982F18
:1021400088E10FB6F894A895809360000FBE909335
:102150006000FFCF8091A2058C838091BB058D83A9
:1021600084E28E8360E086EF9FE03FD586EF9FE0BC
:1021700023D58F8376C18091A2058C838091A4059D
:10218000682F8FE090E031D50E94E8068091BB0572
:102190008D8367C19091A40581E0992309F480E0C3
:1021A00080936E058091A405882309F450C0909116
:1021B000A50581E0992309F480E0682F80ED4BD8D4
:1021C0008091A605D4DA80919905282F30E080917E
:1021D000A705882F90E0822B932B21E0892B09F40F
:1021E00020E0209399058091A8058093690580914E
:1021F000A2058C838091BB058D8380916E058E83B3
:1022000080ED6FD98F838091A6058887809199058D
:102210008987809169058A878091A9058B8780913C
:10222000A9058823A1F0CE010496BC018EE00E948E
:10223000AB0386E087708860982F88E10FB6F8942A
:10224000A895809360000FBE90936000FFCF09C1F6
:102250008091A2058C838091BB058D831E82809125
:102260005205909153058F838091540590915505A7
:1022700088878091560590915705898780915805E8
:10228000909159058A8780915A0590915B058B87BB
:10229000CE010496BC018EE00E94AB038091A205A2
:1022A0008C838091BB058D8381E08E8380915C055A
:1022B00090915D058F8380915E0590915F05888781
:1022C0008091600590916105898780916205909168
:1022D00063058A8780916405909165058B87CE019F
:1022E0000496BC018EE00E94AB038091A2058C8312
:1022F0008091BB058D8382E08E8383EFF9D99C01A9
:102300004AE2429FC001439F900D11242FEF33E01A
:10231000B9017AD1CB018F8388E890E0FC018081FC
:10232000918124E6289FA001299F500D11242FEFB1
:1023300031E0CA01B90168D1CB0189838981882341
:1023400031F08981843619F089818F5F8983898191
:10235000888782EFCDD9BC018CEC90E10E94C10549
:10236000898780EDBED88A87809198058B8779C050
:102370008091A2058C838091BB058D838091A405FB
:102380008F3F81F08091A4058E3060F42091A505E7
:102390008091A405882F90E080509040622F25D432
:1023A0000E94E8061B821A8256C08A818E832A8187
:1023B0003B81C901880F991F880F991F820F931FB6
:1023C00080509040F9D38F832A813B81C901880FC7
:1023D000991F880F991F820F931F0196805090407C
:1023E000EBD388872A813B81C901880F991F880F09
:1023F000991F820F931F029680509040DDD38987EA
:102400002A813B81C901880F991F880F991F820F6C
:10241000931F039680509040CFD38A872A813B81B7
:10242000C901880F991F880F991F820F931F049667
:1024300080509040C1D38B878A819B81029734F46E
:10244000CE010496BC018EE00E94AB038A819B8181
:1024500001969B838A838A819B8103970CF4A5CF85
:102460000000CE010496BC018EE00E94AB032F96C3
:102470000FB6F894DEBF0FBECDBFDF91CF91FF91B5
:10248000EF91BF91AF919F918F917F916F915F91EC
:102490004F913F912F910F9000925B000F9000920F
:1024A0005F000F901F901895CF93DF93CDB7DEB7E5
:1024B000F89460E086EF9FE087D30E94E8060E94D0
:1024C00056080E9476000E94910778948091BB057F
:1024D00084528093BC0582ED04D8982F81E089272F
:1024E00090916B05292F30E0882F90E0822B932B61
:1024F00021E0892B09F420E020936B058091AC0545
:10250000882381F00E94BA071092AC059091A10532
:1025100081E089278093A1058091A105682F82EA37
:102520000E942B09D8CF0F93CF93DF9300D000D018
:10253000CDB7DEB79A8389837C836B8389819A8147
:10254000019709F03EC08B819C810196D1F58FE601
:1025500095E00E94100684E795E00E94100689E746
:1025600095E00E94100602E32FE735E040E06EE7B9
:1025700075E08EE795E00E94310683E895E00E94C1
:10258000100688E895E00E9410068DE895E00E940C
:10259000100682E995E00E9410060EE128E935E078
:1025A00041E067E975E087E995E00E94310602E3C2
:1025B0002DE935E040E06CE975E08CE995E00E949A
:1025C00031060F900F900F900F90DF91CF910F91E8
:1025D0000895CF93DF93CDB7DEB76FEF7FEF81E044
:1025E00090E0A1DFDF91CF910895DB018F939F935E
:1025F0005DD0BF91AF91A29F800D911DA39F900DC3
:10260000B29F900D11240895AA1BBB1B51E107C076
:10261000AA1FBB1FA617B70710F0A61BB70B881F72
:10262000991F5A95A9F780959095BC01CD01089501
:10263000A1E21A2EAA1BBB1BFD010DC0AA1FBB1FC6
:10264000EE1FFF1FA217B307E407F50720F0A21B38
:10265000B30BE40BF50B661F771F881F991F1A94A5
:1026600069F760957095809590959B01AC01BD01CF
:10267000CF010895052E97FB16F400940FD057FD57
:1026800005D0D6DF07FC02D046F408C0509540952F
:10269000309521953F4F4F4F5F4F0895909580950E
:1026A000709561957F4F8F4F9F4F089512D0A59FD2
:1026B000900DB49F900DA49F800D911D112408953D
:1026C000EE0FFF1F0024001C0BBE0790F691E02DBB
:1026D0000994A29FB001B39FC001A39F700D811DFB
:1026E0001124911DB29F700D811D1124911D08951B
:1026F0005058BB27AA270ED075C166D130F06BD1D8
:1027000020F031F49F3F11F41EF45BC10EF4E0950C
:10271000E7FB51C1E92F77D180F3BA17620773073E
:102720008407950718F071F49EF58FC10EF4E095BB
:102730000B2EBA2FA02D0B01B90190010C01CA017B
:10274000A0011124FF27591B99F0593F50F4503E26
:1027500068F11A16F040A22F232F342F4427585F18
:10276000F3CF469537952795A795F0405395C9F730
:102770007EF41F16BA0B620B730B840BBAF09150E8
:10278000A1F0FF0FBB1F661F771F881FC2F70EC087
:10279000BA0F621F731F841F48F48795779567955A
:1027A000B795F7959E3F08F0B3CF9395880F08F043
:1027B0009927EE0F979587950895D9D008F481E071
:1027C00008950CD00FC107D140F0FED030F021F4B5
:1027D0005F3F19F0F0C0511139C1F3C014D198F323
:1027E0009923C9F35523B1F3951B550BBB27AA2792
:1027F00062177307840738F09F5F5F4F220F331F04
:10280000441FAA1FA9F333D00E2E3AF0E0E830D0CF
:1028100091505040E695001CCAF729D0FE2F27D0D2
:10282000660F771F881FBB1F261737074807AB07A0
:10283000B0E809F0BB0B802DBF01FF2793585F4F15
:102840002AF09E3F510568F0B6C000C15F3FECF32F
:10285000983EDCF3869577956795B795F7959F5FDA
:10286000C9F7880F911D9695879597F90895E1E02E
:10287000660F771F881FBB1F621773078407BA078D
:1028800020F0621B730B840BBA0BEE1F88F7E095E8
:10289000089504D06894B111D9C00895BCD088F0CF
:1028A0009F5790F0B92F9927B751A0F0D1F0660F3C
:1028B000771F881F991F1AF0BA95C9F712C0B13057
:1028C00081F0C3D0B1E00895C0C0672F782F88276A
:1028D000B85F39F0B93FCCF3869577956795B39596
:1028E000D9F73EF490958095709561957F4F8F4F05
:1028F0009F4F0895E89409C097FB3EF4909580950A
:10290000709561957F4F8F4F9F4F9923A9F0F92FB5
:1029100096E9BB279395F695879577956795B79533
:10292000F111F8CFFAF4BB0F11F460FF1BC06F5F19
:102930007F4F8F4F9F4F16C0882311F096E911C02B
:10294000772321F09EE8872F762F05C0662371F04C
:1029500096E8862F70E060E02AF09A95660F771F60
:10296000881FDAF7880F9695879597F90895990F3C
:102970000008550FAA0BE0E8FEEF16161706E80749
:10298000F907C0F012161306E407F50798F0621B6A
:10299000730B840B950B39F40A2661F0232B242B3F
:1029A000252B21F408950A2609F4A140A6958FEF5E
:1029B000811D811D089597F99F6780E870E060E0B0
:1029C00008959FEF80EC089500240A9416161706C8
:1029D00018060906089500240A9412161306140610
:1029E00005060895092E0394000C11F4882352F073
:1029F000BB0F40F4BF2B11F460FF04C06F5F7F4F2B
:102A00008F4F9F4F089557FD9058440F551F59F011
:102A10005F3F71F04795880F97FB991F61F09F3FCB
:102A200079F087950895121613061406551FF2CFF4
:102A30004695F1DF08C0161617061806991FF1CF44
:102A400086957105610508940895E894BB2766276B
:102A50007727CB0197F908958ADF08F48FEF08955F
:102A60000BD0C0CFB1DF28F0B6DF18F0952309F006
:102A7000A2CFA7CF1124EACFC6DFA0F3959FD1F351
:102A8000950F50E0551F629FF001729FBB27F00D1C
:102A9000B11D639FAA27F00DB11DAA1F649F662771
:102AA000B00DA11D661F829F2227B00DA11D621FC0
:102AB000739FB00DA11D621F839FA00D611D221F7A
:102AC000749F3327A00D611D231F849F600D211D5E
:102AD000822F762F6A2F11249F5750408AF0E1F001
:102AE00088234AF0EE0FFF1FBB1F661F771F881F4A
:102AF00091505040A9F79E3F510570F05CCFA6CF92
:102B00005F3FECF3983EDCF3869577956795B79534
:102B1000F795E7959F5FC1F7FE2B880F911D96955E
:102B2000879597F9089577DFE0F09E37D8F09639CA
:102B3000B8F49E3848F4672F782F8827985FF9CF2C
:102B400086957795679593959539D0F3B62FB170A3
:102B50006B0F711D811D20F487957795679593956F
:102B600002C01CC073CF882371F4772321F09850E2
:102B7000872B762F07C0662311F499270DC090513B
:102B8000862B70E060E02AF09A95660F771F881F09
:102B9000DAF7880F9695879597F908959F3F31F05A
:102BA000915020F4879577956795B795880F911D7B
:102BB0009695879597F90895F999FECF92BD81BDB5
:102BC000F89A992780B50895262FF999FECF92BDDE
:102BD00081BDF89A019700B4021631F020BD0FB6FE
:102BE000F894FA9AF99A0FBE0895262FF999FECF14
:102BF00092BD81BD20BD0FB6F894FA9AF99A0FBE26
:082C000001960895F894FFCF3E
:102C0800F003CEFFEA03D3FFE103D8FFD703DDFFCC
:102C1800C803E2FFB603E7FFA003ECFF8403F1FF5C
:102C28006303F6FF3F03FBFF10030000DF0205000C
:102C3800AA020A0073020F003A02140002021900E5
:102C4800CC011E0098012300680128003C012D00DA
:102C580014013200F1003700D2003C00B7004100F7
:102C6800A00046008C004B007A0050006B00550015
:102C78005E005A0053005F004A0064004200690089
:102C88003B006E0035007300300078002B007D009B
:102C9800270082002400870021008C001F0091007B
:102CA800F303CEFFEE03D3FFE703D8FFDE03DDFF18
:102CB800D203E2FFC203E7FFAD03ECFF9303E7FF94
:102CC8007303F6FF4C03FBFF1F030000EC02050033
:102CD800B5020A007A020F0023021400020219004A
:102CE800C8011E00900123005D0128002F012D005E
:102CF80006013200E1003700C2003C00A700410095
:102D08008F0046007C004B006B0050005D005500B2
:102D180051005A0047005F003E0064003700690018
:102D280031006E002C0073002700780024007D001D
:102D3800200082001E0087001B008C0019009100F3
:102D4800E103CEFFDF03CFFFDE03D0FFDC03D1FFBB
:102D5800DA03D2FFD803D3FFD603D4FFD303D5FFBA
:102D6800D103D6FFCF03D7FFCC03D8FFC903D9FFC0
:102D7800C603DAFFC303DBFFC003DCFFBD03DDFFCF
:102D8800BA03DEFFB703DFFFB303E0FFAF03E1FFE2
:102D9800AC03E2FFA703E3FFA303E4FF9F03E5FF00
:102DA8009B03E6FF9603E7FF9103E8FF8C03E9FF27
:102DB8008703EAFF8203EBFF7D03ECFF7703EDFF58
:102DC8007103EEFF6C03EFFF6503F0FF5F03F1FF94
:102DD8005903F2FF5203F3FF4C03F4FF4503F5FFD9
:102DE8003E03F6FF3703F7FF2F03F8FF2803F9FF29
:102DF8002003FAFF1803FBFF1003FCFF0803FDFF85
:102E08000003FEFFF802FFFFEF020000E7020100E7
:102E1800DE020200D5020300CC020400C302050052
:102E2800BA020600B1020700A70208009E020900C4
:102E380095020A008B020B0082020C0078020D003A
:102E48006E020E0065020F005B02100051021100B5
:102E5800480212003E021300350214002B0215002E
:102E680021021600180217000E02180005021900A8
:102E7800FB011A00F2011B00E8011C00DF011D0024
:102E8800D6011E00CD011F00C4012000BB01210096
:102E9800B2012200A9012300A10124009801250004
:102EA80090012600870127007F012800770129006B
:102EB8006F012A0067012B005F012C0058012D00CB
:102EC80050012E0049012F00420130003B01310022
:102ED800340132002D013300260134002001350071
:102EE80019013600130137000D01380007013900B8
:102EF80001013A00FB003B00F5003C00F0003D00FA
:102F0800EA003E00E5003F00E0004000DB00410031
:102F1800D5004200D1004300CC004400C800450061
:102F2800C3004600BE004700BA004800B60049008A
:102F3800B2004A00AD004B00AA004C00A6004D00AC
:102F4800A3004E009F004F009B00500097005100C7
:102F580094005200910053008E0054008A005500DE
:102F68008700560084005700820058007F005900EF
:102F78007C005A0079005B0077005C0074005D00FB
:102F880072005E006F005F006D0060006A00610003
:102F98006800620066006300640064006200650007
:102FA800600066005E0067005C0068005A00690007
:102FB80059006A0057006B0055006C0054006D0002
:102FC80052006E000002CEFF0602D3FF0B02D8FFAC
:102FD8001102DDFF1602E2FF1B02E7FF2002ECFFF1
:102FE8002502F1FF2902F6FF2E02FBFF3302000043
:102FF800370205003B020A0040020F004402140099
:10300800480219004C021E005002230054022800F6
:1030180058022D005B0232005F02370063023C0059
:10302800660241006A0246006D024B0070025000C1
:103038007402550077025A007A025F007D0264002C
:103048008002690083026E0086027300010101FF9D
:00000001FF
